:100000000C942A000C943F000C943F000C943F0089
:100010000C943F000C943F000C943F000C943F0064
:100020000C943F000C943F000C943F000C943F0054
:100030000C943F000C943F000C943F000C943F0044
:100040000C943F000C943F000C943F000C943F0034
:100050000C943F0011241FBECFE5D8E0DEBFCDBF1A
:1000600010E0A0E6B0E0E0EAF6E202C005900D92F2
:10007000A836B107D9F70E94A5120C944E130C9420
:100080000000EF92FF920F931F937B018C0120E001
:1000900030E040E05FE40E94410388238CF0C80117
:1000A000B70120E030E040E05FE40E94B9010E9427
:1000B000A1039B01AC01205030404040504806C095
:1000C000C801B7010E94A1039B01AC01B901CA019B
:1000D0001F910F91FF90EF900895A0E0B0E0E3E74B
:1000E000F0E00C941713DC012B01FA019C91923083
:1000F00008F439C1EB018881823008F433C19430AF
:1001000069F4843009F02FC111969C91119789816F
:10011000981709F428C1A0E6B0E025C1843009F49D
:1001200021C18230A9F4923009F01DC19A01AD01BC
:1001300088E0EA010990AE01E90109929E0181502F
:10014000C1F7E201898111969C918923818308C1BD
:10015000923009F407C112962D903C901397EB0151
:100160008A819B811496AD90BD90CD90DC901797BD
:10017000EC80FD800E811F819101281B390BB90194
:1001800037FF04C066277727621B730B6032710547
:100190000CF061C0121613066CF537014801062EEB
:1001A00004C096948794779467940A94D2F721E0D8
:1001B00030E040E050E004C0220F331F441F551FC1
:1001C0006A95D2F721503040404050402E213F21C7
:1001D00040235123211531054105510521F021E02E
:1001E00030E040E050E079018A01E628F72808294C
:1001F00019293CC0232BD1F1260E371E35014601AB
:10020000062E04C096948794779467940A94D2F744
:1002100021E030E040E050E004C0220F331F441FD3
:10022000551F6A95D2F721503040404050402A2156
:100230003B214C215D21211531054105510521F05E
:1002400021E030E040E050E059016A01A628B728DB
:10025000C828D9280BC0821593052CF01C01AA24AC
:10026000BB24650103C0EE24FF24870111969C91F5
:10027000D20111968C91981709F445C0992339F051
:10028000A80197012A193B094C095D0906C0A6017E
:1002900095012E193F09400B510B57FD08C01182E3
:1002A0003382228224833583468357831DC081E0B5
:1002B00081833382228288279927DC01821B930B5A
:1002C000A40BB50B84839583A683B7830DC0220F3F
:1002D000331F441F551F24833583468357838281F0
:1002E000938101979383828324813581468157814D
:1002F000DA01C9010197A109B1098F5F9F4FAF4F83
:10030000BF4328F30BC0918333822282EA0CFB1C8B
:100310000C1D1D1DE482F5820683178383E0808314
:10032000248135814681578157FF1AC0C901AA2708
:1003300097FDA095BA2F81709070A070B0705695FF
:10034000479537952795822B932BA42BB52B848328
:100350009583A683B7838281938101969383828359
:10036000DF0101C0D201CD01CDB7DEB7E2E10C94CF
:100370003313A0E2B0E0EFEBF1E00C9423136983B8
:100380007A838B839C832D833E834F835887E9E058
:10039000EE2EF12CEC0EFD1ECE010196B7010E944F
:1003A000CA048E010F5E1F4FCE010596B8010E9450
:1003B000CA048A8991E089278A8BC701B801AE01F6
:1003C000475E5F4F0E946D000E94F503A096E6E035
:1003D0000C943F13A0E2B0E0E0EFF1E00C942313A3
:1003E00069837A838B839C832D833E834F835887D5
:1003F000F9E0EF2EF12CEC0EFD1ECE010196B701B7
:100400000E94CA048E010F5E1F4FCE010596B801EF
:100410000E94CA04C701B801AE01475E5F4F0E9447
:100420006D000E94F503A096E6E00C943F13A0E255
:10043000B0E0EDE1F2E00C94171369837A838B83CB
:100440009C832D833E834F835887CE010196BE0146
:10045000675F7F4F0E94CA04CE010596BE016F5EA2
:100460007F4F0E94CA049985923088F08989823032
:10047000C8F0943019F4823051F404C0843029F467
:10048000923081F480E690E0C6C0923049F420E0DA
:100490009A858A89981321E02A87CE010996BBC0E4
:1004A000823049F420E09A858A89981321E02A8BCA
:1004B000CE014196B0C02D843E844F8458886D880B
:1004C0007E888F88988CEE24FF248701AA24BB2481
:1004D000650140E050E060E070E0E0E0F0E0C10184
:1004E00081709070892BE9F0E60CF71C081D191D2E
:1004F0009A01AB012A0D3B1D4C1D5D1D80E090E073
:10050000A0E0B0E0E614F7040805190520F481E046
:1005100090E0A0E0B0E0BA01A901480F591F6A1F9E
:100520007B1FAA0CBB1CCC1CDD1C97FE08C081E005
:1005300090E0A0E0B0E0A82AB92ACA2ADB2A3196C6
:10054000E032F10549F0660C771C881C991C569422
:10055000479437942794C3CFFA85EA892B893C893D
:100560008B859C85280F391F2E5F3F4F17C0CA010E
:1005700081709070892B61F016950795F794E79438
:1005800080E090E0A0E0B0E8E82AF92A0A2B1B2BD3
:1005900076956795579547952F5F3F4F77FDE7CF46
:1005A0000CC0440F551F661F771F17FD4160EE0CEE
:1005B000FF1C001F111F21503040403090E05907B0
:1005C00090E0690790E4790760F32B8F3C8FDB01A3
:1005D000CA018F779070A070B07080349105A1052A
:1005E000B10561F447FD0AC0E114F10401051105EC
:1005F00029F0405C5F4F6F4F7F4F40781A8EFE1797
:1006000011F081E08A8F4D8F5E8F6F8F78A383E02A
:10061000898FCE0149960E94F503A096E2E10C94E1
:100620003313A8E1B0E0E7E1F3E00C94231369830E
:100630007A838B839C832D833E834F83588789E005
:10064000E82EF12CEC0EFD1ECE010196B7010E94A2
:10065000CA048E010F5E1F4FCE010596B8010E949D
:10066000CA048985823040F08989823028F0C70128
:10067000B8010E94420501C08FEF6896E6E00C9435
:100680003F13A8E1B0E0E7E4F3E00C94231369839F
:100690007A838B839C832D833E834F83588789E0A5
:1006A000E82EF12CEC0EFD1ECE010196B7010E9442
:1006B000CA048E010F5E1F4FCE010596B8010E943D
:1006C000CA048985823040F08989823028F0C701C8
:1006D000B8010E94420501C08FEF6896E6E00C94D5
:1006E0003F13A8E1B0E0E7E7F3E00C94231369833C
:1006F0007A838B839C832D833E834F83588789E045
:10070000E82EF12CEC0EFD1ECE010196B7010E94E1
:10071000CA048E010F5E1F4FCE010596B8010E94DC
:10072000CA048985823040F08989823028F0C70167
:10073000B8010E94420501C081E06896E6E00C9491
:100740003F13ACE0B0E0E7EAF3E00C9427136983D1
:100750007A838B839C83CE010196BE016B5F7F4FB2
:100760000E94CA048D81823061F1823050F1843060
:1007700021F48E81882351F12EC02F81388537FDD9
:1007800020C06E812F3131051CF06623F9F023C0A3
:100790008EE190E0821B930B29853A854B855C8521
:1007A00004C056954795379527958A95D2F76623C5
:1007B000B1F050954095309521953F4F4F4F5F4F89
:1007C0000EC020E030E040E050E009C02FEF3FEFE6
:1007D0004FEF5FE704C020E030E040E050E8B901AF
:1007E000CA012C96E2E00C944313DF92EF92FF9241
:1007F0000F931F93FC01E480F58006811781D1805F
:100800008081823048F480E090E0A0E1B0E0E82A06
:10081000F92A0A2B1B2BA5C0843009F49FC0823013
:1008200021F4EE24FF24870105C0E114F104010541
:10083000110519F4E0E0F0E096C0628173819FEF4A
:10084000623879070CF05BC022E83FEF261B370BBC
:100850002A3131052CF020E030E040E050E02AC0A1
:10086000B801A701022E04C0769567955795479564
:100870000A94D2F781E090E0A0E0B0E004C0880FD5
:10088000991FAA1FBB1F2A95D2F70197A109B10989
:100890008E219F21A023B1230097A105B10521F04E
:1008A00081E090E0A0E0B0E09A01AB01282B392B69
:1008B0004A2B5B2BDA01C9018F779070A070B07062
:1008C00080349105A105B10539F427FF09C0205CEA
:1008D0003F4F4F4F5F4F04C0215C3F4F4F4F5F4F23
:1008E000E0E0F0E02030A0E03A07A0E04A07A0E412
:1008F0005A0710F0E1E0F0E079018A0127C0603882
:10090000710564F5FB01E158FF4FD801C7018F77EE
:100910009070A070B07080349105A105B10539F4D4
:10092000E7FE0DC080E490E0A0E0B0E004C08FE3FB
:1009300090E0A0E0B0E0E80EF91E0A1F1B1F17FFB1
:1009400005C016950795F794E794319687E01695BC
:100950000795F794E7948A95D1F705C0EE24FF2414
:100960008701EFEFF0E06E2F679566276795902F70
:100970009F77D794DD24D7948E2F8695492F462BC9
:10098000582F5D29B701CA011F910F91FF90EF9079
:10099000DF900895FC01DB01408151812281622FAB
:1009A0006F7770E0221F2227221F9381892F880FE3
:1009B000822B282F30E0991F9927991F11969C931D
:1009C000119721153105A9F54115510561057105ED
:1009D00011F482E037C082E89FEF13969C938E93C8
:1009E00012979A01AB0167E0220F331F441F551F76
:1009F0006A95D1F783E08C930DC0220F331F441FFB
:100A0000551F12968D919C911397019713969C9365
:100A10008E931297203080E0380780E0480780E40A
:100A2000580758F314962D933D934D935C93179765
:100A300008952F3F310579F4411551056105710580
:100A400019F484E08C93089564FF03C081E08C93D3
:100A500012C01C9210C02F57304013963C932E9317
:100A6000129783E08C9387E0440F551F661F771F12
:100A70008A95D1F7706414964D935D936D937C9332
:100A8000179708951F93DC01FB019C91923008F4A5
:100A900047C08081823008F443C0943051F41196ED
:100AA0001C91843099F58181682F70E0611B710978
:100AB0003FC0843021F0923031F48230B9F181812D
:100AC000882389F12DC011961C9111978230F1F085
:100AD00081811817D9F412962D913C911397828138
:100AE00093818217930794F028173907BCF0149666
:100AF0008D919D910D90BC91A02D248135814681D1
:100B00005781281739074A075B0718F4112341F06A
:100B10000AC082179307A407B50740F4112319F000
:100B200061E070E005C06FEF7FEF02C060E070E051
:100B3000CB011F910895DF93CF93CDB7DEB7E9E2E4
:100B4000F0E086E68083E0E4F0E01082E0E4F0E0AC
:100B500086E88083EAE2F0E088E18083CF91DF914C
:100B60000895DF93CF930F92CDB7DEB78983EBE281
:100B7000F0E08081882F90E0807290700097B9F348
:100B8000ECE2F0E0898180830F90CF91DF910895AE
:100B9000DF93CF930F92CDB7DEB7EBE2F0E0808129
:100BA0008823DCF7ECE2F0E080818983ABE2B0E0FF
:100BB000EBE2F0E0808180688C9389810F90CF9187
:100BC000DF910895DF93CF93CDB7DEB7E1E2F0E098
:100BD00083E08083E0E2F0E082E08083CF91DF91E8
:100BE0000895DF93CF930F92CDB7DEB7E6E5F0E03F
:100BF0001082E6E5F0E084EA8083E6E5F0E08081BB
:100C00008823DCF7E1E2F0E0808180E00F90CF9173
:100C1000DF910895DF93CF930F92CDB7DEB789832D
:100C2000E3E2F0E089818083E6E5F0E084E8808318
:100C3000E6E5F0E080818823DCF7E1E2F0E0808106
:100C4000882F90E0887F907088319105B1F70F90E0
:100C5000CF91DF910895DF93CF930F92CDB7DEB799
:100C60008983E3E2F0E089818F5F8083E6E5F0E04D
:100C700084E88083E6E5F0E080818823DCF7E1E228
:100C8000F0E08081882F90E0887F9070803491051B
:100C9000B1F70F90CF91DF910895DF93CF9300D0FC
:100CA000CDB7DEB78983E3E2F0E089818083E6E5B2
:100CB000F0E084E88083E6E5F0E080818823DCF7DB
:100CC000E1E2F0E08081882F90E0887F90708832A8
:100CD000910519F081E08A8301C01A828A810F9000
:100CE0000F90CF91DF910895DF93CF93CDB7DEB70B
:100CF000E6E5F0E084E88083E6E5F0E080818823A3
:100D0000DCF7E1E2F0E08081882F90E0887F90704E
:100D100088359105B1F7E3E2F0E08081CF91DF9172
:100D20000895DF93CF9300D00F92CDB7DEB78A83BB
:100D3000E2E2F0E08A818083E6E5F0E084EC808303
:100D4000E6E5F0E080818823DCF7E1E2F0E08081F5
:100D5000882F90E0887F907088309105B1F7E1E2AC
:100D6000F0E08081887F89838981883131F08981B1
:100D7000803419F081E08B8301C01B828B810F903E
:100D80000F900F90CF91DF910895DF93CF9300D014
:100D9000CDB7DEB7E6E5F0E080818823DCF7E1E25D
:100DA000F0E08081887F89838981803659F0E6E58B
:100DB000F0E084EC8083E6E5F0E080818823DCF7D6
:100DC0001A8202C081E08A838A810F900F90CF91AE
:100DD000DF910895DF93CF93CDB7DEB7E6E5F0E07E
:100DE00084EC8083E6E5F0E080818823DCF7E1E2B3
:100DF000F0E08081882F90E0887F907080389105A6
:100E0000B1F7E3E2F0E08081CF91DF910895DF93C5
:100E1000CF930F92CDB7DEB7E6E5F0E0808188236F
:100E2000DCF781E00F90CF91DF910895DF93CF93AE
:100E30000F92CDB7DEB78983E3E2F0E0898180834A
:100E4000E6E5F0E084E88083E1E2F0E08081882F4D
:100E500090E0887F9070803C9105B1F70F90CF9122
:100E6000DF910895DF93CF93CDB7DEB7E6E5F0E0ED
:100E700084EC8083E6E5F0E080818823DCF7E3E220
:100E8000F0E08081CF91DF910895DF93CF93CDB7CC
:100E9000DEB7E6E5F0E084E88083E6E5F0E0808117
:100EA0008823DCF7E3E2F0E08081CF91DF910895C1
:100EB000DF93CF93CDB7DEB727970FB6F894DEBF99
:100EC0000FBECDBF8A837C836B835E834D8312C04C
:100ED0002B813C818D819E81F901E80FF91F808172
:100EE0000E944D06882319F081E08F830EC089810E
:100EF0008F5F89838981282F30E08D819E8128171B
:100F0000390730F30E94D3071F828F8127960FB6CF
:100F1000F894DEBF0FBECDBFCF91DF9108950F9340
:100F20001F93DF93CF9300D000D00F92CDB7DEB7E1
:100F30008A837C836B834D8319820FC08D81282F18
:100F400030E08B819C818C01020F131F0E943207BD
:100F5000F801808389818F5F89838981282F30E020
:100F60008D81882F90E00197281739073CF38D81F8
:100F7000882F90E09C01215030408B819C818C0116
:100F8000020F131F0E944507F80180830E94D307B8
:100F900080E00F900F900F900F900F90CF91DF9106
:100FA0001F910F910895DF93CF93CDB7DEB7E6E59C
:100FB000F0E084E98083E6E5F0E080818823DCF7D7
:100FC000CF91DF910895DF93CF93CDB7DEB7E6E5FC
:100FD000F0E084EA8083E6E5F0E080818823DCF7B6
:100FE000E1E2F0E08081882F90E0887F907080318E
:100FF0009105B1F7CF91DF910895DF93CF9300D0A2
:1010000000D00F92CDB7DEB789836A834B83898185
:10101000282F30E03D832C838C819D818130910588
:1010200009F447C02C813D81223031052CF48C819C
:101030009D81009771F0CBC02C813D81223031051C
:1010400009F467C08C819D818330910509F491C0BA
:10105000BEC08B818823A9F4AAE3B0E0EAE3F0E004
:101060008081482F8A81282F30E081E090E0022E95
:1010700002C0880F991F0A94E2F7809584238C930D
:10108000A6C08B81813009F0A2C0AAE3B0E0EAE3F8
:10109000F0E08081482F8A81282F30E081E090E0C5
:1010A000022E02C0880F991F0A94E2F7842B8C93BA
:1010B0008EC08B818823A9F4A7E3B0E0E7E3F0E0DA
:1010C0008081482F8A81282F30E081E090E0022E35
:1010D00002C0880F991F0A94E2F7809584238C93AD
:1010E00076C08B81813009F072C0A7E3B0E0E7E3FE
:1010F000F0E08081482F8A81282F30E081E090E065
:10110000022E02C0880F991F0A94E2F7842B8C9359
:101110005EC08B818823A9F4A4E3B0E0E4E3F0E0AF
:101120008081482F8A81282F30E081E090E0022ED4
:1011300002C0880F991F0A94E2F7809584238C934C
:1011400046C08B81813009F042C0A4E3B0E0E4E303
:10115000F0E08081482F8A81282F30E081E090E004
:10116000022E02C0880F991F0A94E2F7842B8C93F9
:101170002EC08B818823A9F4A1E3B0E0E1E3F0E085
:101180008081482F8A81282F30E081E090E0022E74
:1011900002C0880F991F0A94E2F7809584238C93EC
:1011A00016C08B81813099F4A1E3B0E0E1E3F0E077
:1011B0008081482F8A81282F30E081E090E0022E44
:1011C00002C0880F991F0A94E2F7842B8C930F902A
:1011D0000F900F900F900F90CF91DF910895DF93B4
:1011E000CF9300D000D0CDB7DEB789836A838981E1
:1011F000282F30E03C832B838B819C8181309105AB
:1012000021F12B813C81223031052CF48B819C8192
:10121000009761F046C02B813C812230310521F1DD
:101220008B819C818330910571F13BC08A81882339
:1012300021F4EAE3F0E0108234C08A81813089F53C
:10124000EAE3F0E08FEF80832CC08A81882321F4C9
:10125000E7E3F0E0108225C08A81813011F5E7E3F1
:10126000F0E08FEF80831DC08A81882321F4E4E3BE
:10127000F0E0108216C08A81813099F4E4E3F0E056
:101280008FEF80830EC08A81882321F4E1E3F0E0B0
:10129000108207C08A81813021F4E1E3F0E08FEF12
:1012A00080830F900F900F900F90CF91DF91089552
:1012B000DF93CF9300D000D00F92CDB7DEB78983F4
:1012C0006A834B838981282F30E03D832C838C8176
:1012D0009D818130910509F447C02C813D812230E8
:1012E00031052CF48C819D81009771F0CBC02C814D
:1012F0003D812230310509F467C08C819D818330A6
:10130000910509F491C0BEC08B818130A1F4ABE39B
:10131000B0E0EBE3F0E08081482F8A81282F30E0B5
:1013200081E090E0022E02C0880F991F0A94E2F734
:10133000842B8C93A7C08B81882309F0A3C0ABE3D7
:10134000B0E0EBE3F0E08081482F8A81282F30E085
:1013500081E090E0022E02C0880F991F0A94E2F704
:10136000809584238C938EC08B818130A1F4A8E377
:10137000B0E0E8E3F0E08081482F8A81282F30E058
:1013800081E090E0022E02C0880F991F0A94E2F7D4
:10139000842B8C9377C08B81882309F073C0A8E3DA
:1013A000B0E0E8E3F0E08081482F8A81282F30E028
:1013B00081E090E0022E02C0880F991F0A94E2F7A4
:1013C000809584238C935EC08B818130A1F4A5E34A
:1013D000B0E0E5E3F0E08081482F8A81282F30E0FB
:1013E00081E090E0022E02C0880F991F0A94E2F774
:1013F000842B8C9347C08B81882309F043C0A5E3DD
:10140000B0E0E5E3F0E08081482F8A81282F30E0CA
:1014100081E090E0022E02C0880F991F0A94E2F743
:10142000809584238C932EC08B818130A1F4A2E31C
:10143000B0E0E2E3F0E08081482F8A81282F30E09D
:1014400081E090E0022E02C0880F991F0A94E2F713
:10145000842B8C9317C08B818823A1F4A2E3B0E086
:10146000E2E3F0E08081482F8A81282F30E081E09C
:1014700090E0022E02C0880F991F0A94E2F780952F
:1014800084238C930F900F900F900F900F90CF911B
:10149000DF910895DF93CF9300D000D0CDB7DEB7B2
:1014A00089836A838981282F30E03C832B838B8159
:1014B0009C8181309105D1F02B813C812230310516
:1014C0002CF48B819C81009761F01EC02B813C81A4
:1014D0002230310581F08B819C818330910581F030
:1014E00013C0EBE3F0E08A8180830EC0E8E3F0E014
:1014F0008A81808309C0E5E3F0E08A81808304C0AB
:10150000E2E3F0E08A8180830F900F900F900F90BC
:10151000CF91DF910895DF93CF9300D000D00F9249
:10152000CDB7DEB78A836B8319828A81282F30E09A
:101530003D832C834C815D814130510509F463C0AA
:101540008C819D818230910534F42C813D8121155F
:10155000310571F037C14C815D814230510509F48C
:101560009DC08C819D818330910509F4E2C02AC120
:10157000EAE3F0E08081282F30E08B81882F90E033
:10158000A90102C0559547958A95E2F7CA01817075
:101590009070882391F0EBE3F0E08081282F30E019
:1015A0008B81882F90E0A90102C0559547958A95B7
:1015B000E2F7CA018170898305C1EAE3F0E0808126
:1015C000282F30E08B81882F90E0A90102C055952B
:1015D00047958A95E2F7CA0181709070009709F0EB
:1015E000F1C0E9E3F0E08081282F30E08B81882F83
:1015F00090E0A90102C0559547958A95E2F7CA0186
:1016000081708983DFC0E7E3F0E08081282F30E03C
:101610008B81882F90E0A90102C0559547958A9546
:10162000E2F7CA0181709070882391F0E8E3F0E05E
:101630008081282F30E08B81882F90E0A90102C0A3
:10164000559547958A95E2F7CA0181708983BAC09A
:10165000E7E3F0E08081282F30E08B81882F90E055
:10166000A90102C0559547958A95E2F7CA01817094
:101670009070009709F0A6C0E6E3F0E08081282F83
:1016800030E08B81882F90E0A90102C055954795E5
:101690008A95E2F7CA018170898394C0E4E3F0E09F
:1016A0008081282F30E08B81882F90E0A90102C033
:1016B000559547958A95E2F7CA0181709070882305
:1016C00091F0E5E3F0E08081282F30E08B81882FD6
:1016D00090E0A90102C0559547958A95E2F7CA01A5
:1016E000817089836FC0E4E3F0E08081282F30E0CF
:1016F0008B81882F90E0A90102C0559547958A9566
:10170000E2F7CA0181709070009709F05BC0E3E3D3
:10171000F0E08081282F30E08B81882F90E0A901B4
:1017200002C0559547958A95E2F7CA018170898371
:1017300049C0E1E3F0E08081282F30E08B81882FE1
:1017400090E0A90102C0559547958A95E2F7CA0134
:1017500081709070882391F0E2E3F0E08081282F7F
:1017600030E08B81882F90E0A90102C05595479504
:101770008A95E2F7CA018170898324C0E1E3F0E031
:101780008081282F30E08B81882F90E0A90102C052
:10179000559547958A95E2F7CA0181709070009738
:1017A00089F4E0E3F0E08081282F30E08B81882FFE
:1017B00090E0A90102C0559547958A95E2F7CA01C4
:1017C0008170898389810F900F900F900F900F90F7
:1017D000CF91DF910895DF93CF9300D000D00F9287
:1017E000CDB7DEB78A836B8319828A81282F30E0D8
:1017F0003D832C838C819D818130910529F12C8141
:101800003D81223031052CF48C819D81009761F05F
:101810004AC02C813D812230310531F18C819D817E
:101820008330910589F13FC08B81882329F4E9E356
:10183000F0E08081898337C08B818130A1F5EBE3B3
:10184000F0E0808189832FC08B81882329F4E6E32F
:10185000F0E08081898327C08B81813021F5E8E326
:10186000F0E0808189831FC08B81882329F4E3E322
:10187000F0E08081898317C08B818130A1F4E5E39A
:10188000F0E0808189830FC08B81882329F4E0E315
:10189000F0E08081898307C08B81813021F4E2E30D
:1018A000F0E08081898389810F900F900F900F90D5
:1018B0000F90CF91DF910895DF93CF9300D000D0A8
:1018C000CDB7DEB789836A838981282F30E03C83D6
:1018D0002B834B815C814130510509F440C08B81E1
:1018E0009C818230910534F42B813C812115310596
:1018F00071F0AAC04B815C814230510509F457C098
:101900008B819C818330910509F478C09DC0EAE306
:10191000F0E08081282F30E08A81882F90E0A901B3
:1019200002C0559547958A95E2F7CA01817090707B
:10193000882309F489C0ABE3B0E0EBE3F0E08081F9
:10194000482F8A81282F30E081E090E0022E02C0EB
:10195000880F991F0A94E2F784278C9375C0E7E3F8
:10196000F0E08081282F30E08A81882F90E0A90163
:1019700002C0559547958A95E2F7CA01817090702B
:10198000882309F461C0A8E3B0E0E8E3F0E08081D7
:10199000482F8A81282F30E081E090E0022E02C09B
:1019A000880F991F0A94E2F784278C934DC0E7E3D0
:1019B000F0E08081282F30E08A81882F90E0A90113
:1019C00002C0559547958A95E2F7CA0181709070DB
:1019D0008823D1F1A8E3B0E0E8E3F0E08081482F6C
:1019E0008A81282F30E081E090E0022E02C0880F2B
:1019F000991F0A94E2F784278C9326C0E7E3F0E06E
:101A00008081282F30E08A81882F90E0A90102C0D0
:101A1000559547958A95E2F7CA01817090708823A1
:101A200099F0A8E3B0E0E8E3F0E08081482F8A81F4
:101A3000282F30E081E090E0022E02C0880F991F2D
:101A40000A94E2F784278C930F900F900F900F90D9
:101A5000CF91DF910895DF93CF93CDB7DEB7A6E2A4
:101A6000B0E0E6E2F0E0808187608C93A7E2B0E02E
:101A7000E7E2F0E080818F7380648C93A7E2B0E0AE
:101A8000E7E2F0E080818F7D8C93A6E2B0E0E6E2B1
:101A9000F0E08081877F8C93A6E2B0E0E6E2F0E0A0
:101AA00080818F7D8C93A6E2B0E0E6E2F0E0808159
:101AB00080688C93CF91DF910895DF93CF9300D00E
:101AC0000F92CDB7DEB78B831A821982E6E2F0E07F
:101AD00080818295869586958370882F90E08170AD
:101AE00090700097D1F58B818823B9F18B81893073
:101AF000A0F5A7E2B0E0E7E2F0E08081982F907EC9
:101B00008B818150892B8C93A6E2B0E0E6E2F0E075
:101B1000808180648C93E6E2F0E0808182958695F6
:101B200086958370882F90E081709070882399F754
:101B3000E4E2F0E08081882F90E09A838983E5E2F7
:101B4000F0E08081882F90E0982F88279C01898180
:101B50009A81822B932B9A83898389819A810F9012
:101B60000F900F90CF91DF910895DF93CF93CDB772
:101B7000DEB7E8970FB6F894DEBF0FBECDBF80E0AA
:101B800090E0A0EFB1E48DAB9EABAFABB8AF6DA969
:101B90007EA98FA998AD20E030E04AEF54E40E947E
:101BA0001702DC01CB0189AB9AABABABBCAB69A92B
:101BB0007AA98BA99CA920E030E040E85FE30E946D
:101BC000710388232CF481E090E098AB8FA73FC08D
:101BD00069A97AA98BA99CA920E03FEF4FE757E4B8
:101BE0000E94110318164CF56DA97EA98FA998AD16
:101BF00020E030E040E251E40E941702DC01CB011A
:101C0000BC01CD010E944100DC01CB0198AB8FA744
:101C10000FC088EC90E09EA78DA78DA59EA501978B
:101C2000F1F79EA78DA78FA598A9019798AB8FA7CD
:101C30008FA598A9009769F714C069A97AA98BA9FB
:101C40009CA90E944100DC01CB0198AB8FA78FA516
:101C500098A99CA78BA78BA59CA50197F1F79CA79A
:101C60008BA788E30E949C0F80E090E0A0E8BFE390
:101C70008FA398A7A9A7BAA76FA178A589A59AA5A8
:101C800020E030E04AEF54E40E941702DC01CB016F
:101C90008BA39CA3ADA3BEA36BA17CA18DA19EA190
:101CA00020E030E040E85FE30E94710388232CF4D9
:101CB00081E090E09AA389A33FC06BA17CA18DA194
:101CC0009EA120E03FEF4FE757E40E941103181652
:101CD0004CF56FA178A589A59AA520E030E040E2F7
:101CE00051E40E941702DC01CB01BC01CD010E942E
:101CF0004100DC01CB019AA389A30FC088EC90E0DE
:101D000098A38F8F8F8D98A10197F1F798A38F8F4C
:101D100089A19AA101979AA389A389A19AA1009761
:101D200069F714C06BA17CA18DA19EA10E94410006
:101D3000DC01CB019AA389A389A19AA19E8F8D8FE3
:101D40008D8D9E8D0197F1F79E8F8D8F8CE00E9477
:101D50009C0F80E090E0A0E8BFE3898F9A8FAB8F63
:101D6000BC8F698D7A8D8B8D9C8D20E030E04AEFA1
:101D700054E40E941702DC01CB018D8B9E8BAF8B4C
:101D8000B88F6D897E898F89988D20E030E040E89A
:101D90005FE30E94710388232CF481E090E09C8B28
:101DA0008B8B3FC06D897E898F89988D20E03FEFB6
:101DB0004FE757E40E94110318164CF5698D7A8D90
:101DC0008B8D9C8D20E030E040E251E40E941702B0
:101DD000DC01CB01BC01CD010E944100DC01CB0143
:101DE0009C8B8B8B0FC088EC90E09A8B898B8989B8
:101DF0009A890197F1F79A8B898B8B899C89019736
:101E00009C8B8B8B8B899C89009769F714C06D899B
:101E10007E898F89988D0E944100DC01CB019C8BCB
:101E20008B8B8B899C89988B8F878F85988901975D
:101E3000F1F7988B8F8781E00E949C0F80E090E003
:101E4000A0E0B0E48B879C87AD87BE876B857C85DF
:101E50008D859E8520E030E04AEF54E40E94170211
:101E6000DC01CB018F839887A987BA876F8178853A
:101E700089859A8520E030E040E85FE30E947103A5
:101E800088232CF481E090E09E838D833FC06F8196
:101E9000788589859A8520E03FEF4FE757E40E94D7
:101EA000110318164CF56B857C858D859E8520E089
:101EB00030E040E251E40E941702DC01CB01BC019A
:101EC000CD010E944100DC01CB019E838D830FC0B8
:101ED00088EC90E09C838B838B819C810197F1F748
:101EE0009C838B838D819E8101979E838D838D81C1
:101EF0009E81009769F714C06F81788589859A85DE
:101F00000E944100DC01CB019E838D838D819E81E7
:101F10009A83898389819A810197F1F79A838983CA
:101F200086E00E949C0FE8960FB6F894DEBF0FBEC5
:101F3000CDBFCF91DF910895DF93CF93CDB7DEB7BB
:101F40006D970FB6F894DEBF0FBECDBF8D8F82E0C8
:101F500060E040E00E94580981E06D8D0E944A0ACD
:101F600082E061E041E00E94580980E090E0A0E852
:101F7000BFE3898F9A8FAB8FBC8F698D7A8D8B8DE4
:101F80009C8D20E030E04AEF54E40E941702DC010F
:101F9000CB018D8B9E8BAF8BB88F6D897E898F899E
:101FA000988D20E030E040E85FE30E9471038823D1
:101FB0002CF481E090E09C8B8B8B3FC06D897E89F7
:101FC0008F89988D20E03FEF4FE757E40E9411037F
:101FD00018164CF5698D7A8D8B8D9C8D20E030E044
:101FE00040E251E40E941702DC01CB01BC01CD01AB
:101FF0000E944100DC01CB019C8B8B8B0FC088ECD5
:1020000090E09A8B898B89899A890197F1F79A8B4D
:10201000898B8B899C8901979C8B8B8B8B899C8965
:10202000009769F714C06D897E898F89988D0E9409
:102030004100DC01CB019C8B8B8B8B899C89988B1D
:102040008F878F8598890197F1F7988B8F8782E02A
:1020500061E040E00E94580980E090E0A0E2B1E435
:102060008B879C87AD87BE876B857C858D859E859C
:1020700020E030E04AEF54E40E941702DC01CB017B
:102080008F839887A987BA876F81788589859A8594
:1020900020E030E040E85FE30E94710388232CF4E5
:1020A00081E090E09E838D833FC06F817885898534
:1020B0009A8520E03FEF4FE757E40E94110318167E
:1020C0004CF56B857C858D859E8520E030E040E277
:1020D00051E40E941702DC01CB01BC01CD010E943A
:1020E0004100DC01CB019E838D830FC088EC90E022
:1020F0009C838B838B819C810197F1F79C838B83DD
:102100008D819E8101979E838D838D819E81009715
:1021100069F714C06F81788589859A850E9441008E
:10212000DC01CB019E838D838D819E819A8389837F
:1021300089819A810197F1F79A8389836D960FB609
:10214000F894DEBF0FBECDBFCF91DF910895DF932E
:10215000CF93CDB7DEB76D970FB6F894DEBF0FBE45
:10216000CDBF8D8F82E060E041E00E94580981E0A0
:102170006D8D0E944A0A82E061E041E00E945809A8
:1021800080E090E0A0E8BFE3898F9A8FAB8FBC8F8F
:10219000698D7A8D8B8D9C8D20E030E04AEF54E480
:1021A0000E941702DC01CB018D8B9E8BAF8BB88F09
:1021B0006D897E898F89988D20E030E040E85FE36B
:1021C0000E94710388232CF481E090E09C8B8B8B20
:1021D0003FC06D897E898F89988D20E03FEF4FE762
:1021E00057E40E94110318164CF5698D7A8D8B8D7A
:1021F0009C8D20E030E040E251E40E941702DC01B7
:10220000CB01BC01CD010E944100DC01CB019C8BC4
:102210008B8B0FC088EC90E09A8B898B89899A8987
:102220000197F1F79A8B898B8B899C8901979C8BFD
:102230008B8B8B899C89009769F714C06D897E8987
:102240008F89988D0E944100DC01CB019C8B8B8B88
:102250008B899C89988B8F878F8598890197F1F757
:10226000988B8F8782E061E040E00E94580980E00F
:1022700090E0A0E2B1E48B879C87AD87BE876B8539
:102280007C858D859E8520E030E04AEF54E40E94F5
:102290001702DC01CB018F839887A987BA876F81EA
:1022A000788589859A8520E030E040E85FE30E94E8
:1022B000710388232CF481E090E09E838D833FC0DE
:1022C0006F81788589859A8520E03FEF4FE757E455
:1022D0000E94110318164CF56B857C858D859E85B3
:1022E00020E030E040E251E40E941702DC01CB0123
:1022F000BC01CD010E944100DC01CB019E838D8396
:102300000FC088EC90E09C838B838B819C8101972C
:10231000F1F79C838B838D819E8101979E838D83B2
:102320008D819E81009769F714C06F8178858985BA
:102330009A850E944100DC01CB019E838D838D81B3
:102340009E819A83898389819A810197F1F79A8383
:1023500089836D960FB6F894DEBF0FBECDBFCF91C7
:10236000DF910895DF93CF9300D000D00F92CDB7C7
:10237000DEB78A836B838B818823E9F08B8181317F
:10238000D0F48A81282F30E03D832C838C819D817D
:102390008130910531F02C813D812230310519F0D9
:1023A00004C0198202C080E489839B818981890FDE
:1023B00081580E949C0F0F900F900F900F900F90DC
:1023C000CF91DF910895DF93CF9300D0CDB7DEB7E3
:1023D0009A8389830BC0E981FA81808191810E946F
:1023E000A71089819A8102969A838983E981FA816B
:1023F00080819181009779F70F900F90CF91DF91B5
:102400000895DF93CF93CDB7DEB72C970FB6F8942E
:10241000DEBF0FBECDBF69877A878B879C8781E03F
:1024200090E0A0E0B0E08D839E83AF83B88789857C
:102430009A85AB85BC852AE030E040E050E0BC01E5
:10244000CD010E94F512DA01C90189839A83AB8319
:10245000BC8324C089819A81AB81BC812AE030E0B1
:1024600040E050E0BC01CD010E94F512DA01C90143
:1024700089839A83AB83BC838D819E81AF81B8852C
:102480002AE030E040E050E0BC01CD010E94D612CD
:10249000DC01CB018D839E83AF83B88789819A81CC
:1024A000AB81BC810097A105B105A1F689859A850C
:1024B000AB85BC8589839A83AB83BC8335C0898116
:1024C0009A81AB81BC812D813E814F815885BC01B1
:1024D000CD010E94F512DA01C901805D0E94A710AA
:1024E00089819A81AB81BC812D813E814F81588544
:1024F000BC01CD010E94F512DC01CB0189839A83D6
:10250000AB83BC838D819E81AF81B8852AE030E0AA
:1025100040E050E0BC01CD010E94F512DA01C90192
:102520008D839E83AF83B88789819A81AB81BC817B
:102530000097A105B10519F62C960FB6F894DEBFE9
:102540000FBECDBFCF91DF910895DF93CF930F9250
:10255000CDB7DEB781E061E00E94EF0882E060E085
:1025600041E00E94FD0782E061E041E00E94FD073A
:1025700083E066E041E00E94FD0782E062E041E026
:102580000E94FD0782E063E041E00E94FD0782E0D7
:1025900064E041E00E94FD070E94B50D0E942B0DF2
:1025A0000E949B050F90CF91DF910895629FD0010B
:1025B000739FF001829FE00DF11D649FE00DF11DFE
:1025C000929FF00D839FF00D749FF00D659FF00DAD
:1025D0009927729FB00DE11DF91F639FB00DE11D9A
:1025E000F91FBD01CF0111240895A1E21A2EAA1BE3
:1025F000BB1BFD010DC0AA1FBB1FEE1FFF1FA217B3
:10260000B307E407F50720F0A21BB30BE40BF50BAF
:10261000661F771F881F991F1A9469F76095709538
:10262000809590959B01AC01BD01CF0108952F923B
:102630003F924F925F926F927F928F929F92AF9252
:10264000BF92CF92DF92EF92FF920F931F93CF939F
:10265000DF93CDB7DEB7CA1BDB0B0FB6F894DEBF36
:102660000FBECDBF09942A88398848885F846E845C
:102670007D848C849B84AA84B984C884DF80EE80A6
:10268000FD800C811B81AA81B981CE0FD11D0FB6AF
:10269000F894DEBF0FBECDBFED010895F894FFCFD3
:0826A000000000000000000032
:00000001FF
